:1000000012C019C018C017C016C015C014C013C044
:1000100012C011C010C00FC00EC00DC00CC00BC06C
:100020000AC009C008C011241FBECFE5D4E0DEBF5E
:10003000CDBF02D05FC0E4CFB898A09AA19AA29A8F
:10004000A39AA49AA59A28EA31E6B09B51C0A89A2F
:10005000C9010197F1F7A898C9010197F1F7A99A89
:10006000C9010197F1F7A998C9010197F1F7AA9A77
:10007000C9010197F1F7AA98C9010197F1F7AB9A65
:10008000C9010197F1F7AB98C9010197F1F7AC9A53
:10009000C9010197F1F7AC98C9010197F1F7AD9A41
:1000A000C9010197F1F7AD98C9010197F1F7AC9A31
:1000B000C9010197F1F7AC98C9010197F1F7AB9A23
:1000C000C9010197F1F7AB98C9010197F1F7AA9A15
:1000D000C9010197F1F7AA98C9010197F1F7A99A07
:1000E000C9010197F1F7A998C9010197F1F7ADCFBF
:0800F000C198ABCFF894FFCFDB
:00000001FF
