:1000000012C019C018C017C016C015C014C013C044
:1000100012C011C010C00FC00EC00DC00CC00BC06C
:100020000AC009C008C011241FBECFE5D4E0DEBF5E
:10003000CDBF02D00DC1E4CFB898A09AA19AA29AE0
:10004000A39AA49AA59A899A49E150E02CE732E94B
:1000500064ED70E3B09BF1C0A89AA99AAA9AAB9AF2
:10006000AC9AAD9A919888EB9BE0FA013197F1F741
:100070000197D9F7A898A998AA98AB98AC98AD9889
:100080009198C9010197F1F7A898A99AAA9AAB98F3
:10009000AC98AD98919888EB9BE0FA013197F1F715
:1000A0000197D9F7A898A998AA98AB98AC98AD9859
:1000B0009198C9010197F1F7A89AA99AAA98AB9AC1
:1000C000AC9AAD98919A88EB9BE0FA013197F1F7E1
:1000D0000197D9F7A898A998AA98AB98AC98AD9829
:1000E0009198C9010197F1F7A89AA99AAA9AAB9A8F
:1000F000AC98AD98919A88EB9BE0FA013197F1F7B3
:100100000197D9F7A898A998AA98AB98AC98AD98F8
:100110009198C9010197F1F7A898A99AAA9AAB9862
:10012000AC98AD9A919A88EB9BE0FA013197F1F780
:100130000197D9F7A898A998AA98AB98AC98AD98C8
:100140009198C9010197F1F7A89AA998AA9AAB9A30
:10015000AC98AD9A919A88EB9BE0FA013197F1F750
:100160000197D9F7A898A998AA98AB98AC98AD9898
:100170009198C9010197F1F7A89AA998AA9AAB9A00
:10018000AC9AAD9A919A88EB9BE0FA013197F1F71E
:100190000197D9F7A898A998AA98AB98AC98AD9868
:1001A0009198C9010197F1F7A89AA99AAA9AAB98D0
:1001B000AC98AD98919888EB9BE0FA013197F1F7F4
:1001C0000197D9F7A898A998AA98AB98AC98AD9838
:1001D0009198C9010197F1F7A89AA99AAA9AAB9A9E
:1001E000AC9AAD9A919A88EB9BE0FA013197F1F7BE
:1001F0000197D9F7A898A998AA98AB98AC98AD9808
:100200009198C9010197F1F7A89AA99AAA9AAB9A6D
:10021000AC98AD9A919A88EB9BE0FA013197F1F78F
:100220000197D9F7A898A998AA98AB98AC98AD98D7
:100230009198CB010197F1F701C0A898A998AA98C5
:10024000AB98AC98AD989198C9010197F1F702CF9E
:04025000F894FFCF50
:00000001FF
