:1000000012C019C018C017C016C015C014C013C044
:1000100012C011C010C00FC00EC00DC00CC00BC06C
:100020000AC009C008C011241FBECFE5D4E0DEBF5E
:10003000CDBF02D09DC0E4CF6F927F928F929F92EE
:10004000AF92BF92CF92DF92EF92FF920F931F93E6
:10005000DF93CF93CDB7DEB764970FB6F894DEBFCA
:100060000FBECDBF8FE787BB14BA83E081BB8FE3A0
:1000700090E09A83898386E090E09C838B838BE574
:1000800090E09E838D838FE490E098878F8386E64F
:1000900090E09A8789878DE690E09C878B878DE733
:1000A00090E09E878D8787E090E0988B8F878FE721
:1000B00090E09A8B898B8FE690E09C8B8B8BDE0196
:1000C000119682E0682E6CE772E9772473940FE34F
:1000D000802E20E533EC16E0912EFBE5AF2EEFE409
:1000E000BE2E56E6C52E4DE6D42E9DE7E92EAE0176
:1000F0004B5E5F4F989B3AC0FD0187E0F82E0FE7FB
:100100001FE662BA808188BBCB010197F1F772BA12
:1001100088BAC9010197F1F798BAC9010197F1F7B7
:10012000A8BAC9010197F1F7B8BAC9010197F1F767
:10013000C8BAC9010197F1F7D8BAC9010197F1F717
:10014000E8BAC9010197F1F7F8BAC9010197F1F7C7
:1001500008BBC9010197F1F718BBC9010197F1F775
:100160003296E417F50709F0CCCFC4CF18BAC2CF46
:04017000F894FFCF31
:00000001FF
