:1000000012C019C018C017C016C015C014C013C044
:1000100012C011C010C00FC00EC00DC00CC00BC06C
:100020000AC009C008C011241FBECFE5D4E0DEBF5E
:10003000CDBF02D098C0E4CF6F927F928F929F92F3
:10004000AF92BF92CF92DF92EF92FF920F931F93E6
:10005000DF93CF93CDB7DEB764970FB6F894DEBFCA
:100060000FBECDBF8FE787BB14BA8FE081BB8FE394
:1000700090E09A83898386E090E09C838B838BE574
:1000800090E09E838D838FE490E098878F8386E64F
:1000900090E09A8789878DE690E09C878B878DE733
:1000A00090E09E878D8787E090E0988B8F878FE721
:1000B00090E09A8B898B8FE690E09C8B8B8B8E01E6
:1000C0000F5F1F4F5EE0852E42EFC42E4BE2D42E11
:1000D0003DE0932EBE016B5E7F4F989B42C0A8010E
:1000E0002AEFE22EF12C9BE0A92E87E0B82E37C034
:1000F000989B22C082BAF301808188BBC601019718
:10010000F1F792BA8C9188BBC7010197F1F7A2BAB7
:10011000F901808188BBC7010197F1F7B2BAFA01F2
:10012000808188BBC7010197F1F782E090E0680EFB
:10013000791E66167706E1F612966A177B0711F0AC
:100140003801D6CF2E5F3F4F6217730711F0D801E9
:10015000F7CF4E5F5F4F6417750709F4BECF980164
:0A016000F6CF18BABACFF894FFCF1B
:00000001FF
