:1000000012C019C018C017C016C015C014C013C044
:1000100012C011C010C00FC00EC00DC00CC00BC06C
:100020000AC009C008C011241FBECFE5D4E0DEBF5E
:10003000CDBF02D0B9C0E4CFAF92BF92CF92DF92D2
:10004000EF92FF920F931F9317BA8FE384BB82E066
:1000500081BB7FE349E150E02CE732E9B6E0AB2E0B
:10006000ABE1BA2E62E0FFE0CF2EE6E2EE2E9DE29B
:10007000D92E0DE387E0F82E1FE2A4EDB0E3B09B8C
:100080008DC075BB12BA88EB9BE0FA013197F1F78E
:100090000197D9F715BA12BAC9010197F1F7A5BAB4
:1000A00012BA88EB9BE0FA013197F1F70197D9F783
:1000B00015BA12BAC9010197F1F7B5BA62BB88EB5C
:1000C0009BE0FA013197F1F70197D9F715BA12BA07
:1000D000C9010197F1F7C5BA62BB88EB9BE0FA0151
:1000E0003197F1F70197D9F715BA12BAC9010197FB
:1000F000F1F7E5BA62BB88EB9BE0FA013197F1F7C3
:100100000197D9F715BA12BAC9010197F1F7D5BA13
:1001100062BB88EB9BE0FA013197F1F70197D9F7C1
:1001200015BA12BAC9010197F1F705BB62BB88EB9A
:100130009BE0FA013197F1F70197D9F715BA12BA96
:10014000C9010197F1F7F5BA12BA88EB9BE0FA0101
:100150003197F1F70197D9F715BA12BAC90101978A
:10016000F1F775BB62BB88EB9BE0FA013197F1F7C1
:100170000197D9F715BA12BAC9010197F1F715BB62
:1001800062BB88EB9BE0FA013197F1F70197D9F751
:1001900015BA12BACD010197F1F701C015BA12BA1A
:0C01A000C9010197F1F76BCFF894FFCF75
:00000001FF
