:1000000012C019C018C017C016C015C014C013C044
:1000100012C011C010C00FC00EC00DC00CC00BC06C
:100020000AC009C008C011241FBECFE5D4E0DEBF5E
:10003000CDBF02D051C0E4CF0F931F938FEF87BB8A
:1000400014BA8CE081BB01E024ED30E313E0B7E0AB
:10005000AFE0FFE1EFE37FE74FEF64E05CE0989B08
:1000600038C008BB12BAC9010197F1F718BB12BA20
:10007000C9010197F1F7B8BB12BAC9010197F1F7AD
:10008000A8BB12BAC9010197F1F7F8BB12BAC901AE
:100090000197F1F7E8BB12BAC9010197F1F778BBF4
:1000A00012BAC9010197F1F748BB12BAC901019709
:1000B000F1F748BB62BBC9010197F1F748BB52BBDE
:1000C000C9010197F1F718BA12BAC9010197F1F7FE
:0C00D000C6CF18BA12BAC3CFF894FFCF05
:00000001FF
